:10009900003F0006005B004F0066006D007D000711
:1000A900007F006F0077007C0039005E00790071E5
:0E00D700EF1FAC0670011E4C70F6E4FEFF2217
:10000300E4FBFA75900FE590640F70030200987F8C
:10001300E87E031200D7AF90EF24F5601224FE6050
:100023001614601B2407701DE4F508F50980167586
:100033000800750901800E750800750902800675B0
:1000430008007509037590F0AF90EF2450601424F5
:10005300E0601424F060142470701B85080885097F
:100063000980137404800674088002740C2509F552
:1000730009E43508F508C3EB9432EA6480948050B0
:1000830014E59064F0600E7FE87E031200D70BBB8B
:0500930000010A80E1FC
:010098002245
:1000B900120003E50925E0FFE50833FE74992FF5E1
:0E00C9008274003EF583740193F4F58080E2AA
:030000000200E516
:0C00E500787FE4F6D8FD7581090200B9AF
:00000001FF
