:10008B00003F0006005B004F0066006D007D00071F
:10009B00007F006F0077007C0039005E00790071F3
:0E00AB00EF1FAC0670011E4C70F6E4FEFF2243
:10000300E4FBFAEA7053EBB40800504D900016F885
:1000130028287302002E02003202003A02003E0238
:10002300004602004A020052020056C2A28002D2D7
:10003300A2C2A3C2A48022C2A28002D2A2D2A3C21D
:10004300A48016C2A28002D2A2C2A3D2A4800AC2F2
:10005300A28002D2A2D2A3D2A4EB25E0FFEA33FE10
:10006300748B2FF58274003EF583740193F5807FC2
:10007300A07E861200ABE4F5800BBB00010AEB64A3
:07008300084A6003020006B9
:01008A002253
:0500C50012000380FBA6
:030000000200B942
:0C00B900787FE4F6D8FD7581070200C5D1
:00000001FF
